:020000040800F2
:100000008029002475400008EB8400086140000846
:1000100061400008614000086140000800000000E5
:100020000000000000000000000000003541000852
:100030006140000800000000D5400008C5600008CD
:10004000AD420008AD420008AD420008AD420008D4
:10005000AD420008AD420008AD420008AD420008C4
:10006000AD420008AD420008AD420008AD420008B4
:10007000AD420008AD420008AD420008AD420008A4
:1002980081F0004102E000BF83F0004330B54FEA2F
:1002A80041044FEA430594EA050F08BF90EA020F9C
:1002B8001FBF54EA000C55EA020C7FEA645C7FEA2F
:1002C800655C00F0E2804FEA5454D4EB5555B8BF52
:1002D8006D420CDD2C4480EA020281EA030382EAC3
:1002E800000083EA010180EA020281EA0303362D55
:1002F80088BF30BD11F0004F4FEA01314FF4801C28
:100308004CEA113102D0404261EB410113F0004F39
:100318004FEA03334CEA133302D0524263EB4303F0
:1003280094EA050F00F0A780A4F10104D5F1200E8E
:100338000DDB02FA0EFC22FA05F2801841F10001E9
:1003480003FA0EF2801843FA05F359410EE0A5F1BD
:1003580020050EF1200E012A03FA0EFC28BF4CF0EE
:10036800020C43FA05F3C01851EBE37101F00045A4
:1003780007D54FF0000EDCF1000C7EEB00006EEBB1
:100388000101B1F5801F1BD3B1F5001F0CD349083B
:100398005FEA30004FEA3C0C04F101044FEA445292
:1003A80012F5800F80F09A80BCF1004F08BF5FEA19
:1003B800500C50F1000041EB045141EA050130BDF9
:1003C8005FEA4C0C404141EB0101013C28BFB1F50B
:1003D800801FE9D291F0000F04BF01460020B1FA56
:1003E80081F308BF2033A3F10B03B3F120020CDA29
:1003F8000C3208DD02F1140CC2F10C0201FA0CF007
:1004080021FA02F10CE002F11402D8BFC2F1200C6B
:1004180001FA02F120FA0CFCDCBF41EA0C01904021
:10042800E41AA2BF01EB0451294330BD6FEA04046A
:100438001F3C1CDA0C340EDC04F11404C4F1200255
:1004480020FA04F001FA02F340EA030021FA04F367
:1004580045EA030130BDC4F10C04C4F1200220FABE
:1004680002F001FA04F340EA0300294630BD21FAFC
:1004780004F0294630BD94F0000F83F4801306BFC2
:1004880081F480110134013D4EE77FEA645C18BFB6
:100498007FEA655C29D094EA050F08BF90EA020F4D
:1004A80005D054EA000C04BF1946104630BD91EA45
:1004B800030F1EBF0021002030BD5FEA545C05D148
:1004C8004000494128BF41F0004130BD14F5800487
:1004D8003CBF01F5801130BD01F0004545F0FE41FB
:1004E80041F470014FF0000030BD7FEA645C1ABF30
:1004F800194610467FEA655C1CBF0B46024650EA67
:10050800013406BF52EA033591EA030F41F4002192
:1005180030BD00BF90F0000F04BF0021704730B518
:100528004FF4806404F132044FF000054FF00001ED
:1005380050E700BF90F0000F04BF0021704730B5AE
:100548004FF4806404F1320410F0004548BF404283
:100558004FF000013EE700BF42004FEAE2014FEAD8
:1005680031014FEA02701FBF12F07F4393F07F4FB3
:1005780081F06051704732F07F4208BF704793F0B6
:100588007F4F04BF41F40021704730B54FF46074C9
:1005980001F0004521F000411CE700BF50EA0102CC
:1005A80008BF704730B54FF000050AE050EA010275
:1005B80008BF704730B511F0004502D5404261EBE5
:1005C80041014FF4806404F132045FEA915C3FF426
:1005D800D8AE4FF003025FEADC0C18BF03325FEAC3
:1005E800DC0C18BF033202EBDC02C2F1200300FA74
:1005F80003FC20FA02F001FA03FE40EA0E0021FA99
:1006080002F11444BDE600BF70B54FF0FF0C4CF486
:10061800E06C1CEA11541DBF1CEA135594EA0C0F38
:1006280095EA0C0F00F0DEF82C4481EA030621EA73
:100638004C5123EA4C5350EA013518BF52EA0335AE
:1006480041F4801143F4801338D0A0FB02CE4FF060
:100658000005E1FB02E506F00042E0FB03E54FF090
:100668000006E1FB03569CF0000F18BF4EF0010E88
:10067800A4F1FF04B6F5007F64F5407404D25FEA84
:100688004E0E6D4146EB060642EAC62141EA555137
:100698004FEAC52040EA5E504FEACE2EB4F1FD0C79
:1006A80088BFBCF5E06F1ED8BEF1004F08BF5FEAF7
:1006B800500E50F1000041EB045170BD06F00046A9
:1006C80046EA010140EA020081EA0301B4EB5C0456
:1006D800C2BFD4EB0C0541EA045170BD41F480114E
:1006E8004FF0000E013C00F3AB8014F1360FDEBF73
:1006F800002001F0004170BDC4F10004203C35DA4F
:100708000C341BDC04F11404C4F1200500FA05F3D1
:1007180020FA04F001FA05F240EA020001F0004272
:1007280021F0004110EBD37021FA04F642EB0601E8
:100738005EEA430E08BF20EAD37070BDC4F10C0412
:10074800C4F1200500FA04F320FA05F001FA04F2D6
:1007580040EA020001F0004110EBD37041F10001C2
:100768005EEA430E08BF20EAD37070BDC4F12005CD
:1007780000FA05F24EEA020E20FA04F301FA05F235
:1007880043EA020321FA04F001F0004121FA04F2DD
:1007980020EA020000EBD3705EEA430E08BF20EAAD
:1007A800D37070BD94F0000F0FD101F000464000E7
:1007B80041EB010111F4801F08BF013CF7D041EA69
:1007C800060195F0000F18BF704703F0004652006D
:1007D80043EB030313F4801F08BF013DF7D043EA3E
:1007E8000603704794EA0C0F0CEA135518BF95EAF4
:1007F8000C0F0CD050EA410618BF52EA4306D1D17B
:1008080081EA030101F000414FF0000070BD50EA99
:10081800410606BF1046194652EA430619D094EA23
:100828000C0F02D150EA013613D195EA0C0F05D10D
:1008380052EA03361CBF104619460AD181EA030161
:1008480001F0004141F0FE4141F470014FF0000019
:1008580070BD41F0FE4141F4780170BD70B54FF0B4
:10086800FF0C4CF4E06C1CEA11541DBF1CEA135534
:1008780094EA0C0F95EA0C0F00F0A7F8A4EB050416
:1008880081EA030E52EA03354FEA013100F088800D
:100898004FEA03334FF0805545EA131343EA1263D6
:1008A8004FEA022245EA111545EA10654FEA00268B
:1008B8000EF000419D4208BF964244F1FD0404F544
:1008C800407402D25B084FEA3202B61A65EB0305A0
:1008D8005B084FEA32024FF480104FF4002CB6EB5D
:1008E800020E75EB030E22BFB61A754640EA0C00DD
:1008F8005B084FEA3202B6EB020E75EB030E22BF1D
:10090800B61A754640EA5C005B084FEA3202B6EB5D
:10091800020E75EB030E22BFB61A754640EA9C001C
:100928005B084FEA3202B6EB020E75EB030E22BFEC
:10093800B61A754640EADC0055EA060E18D04FEAAA
:10094800051545EA16754FEA06164FEAC30343EA4A
:1009580052734FEAC2025FEA1C1CC0D111F4801F17
:100968000BD141EA00014FF000004FF0004CB6E710
:1009780011F4801F04BF01430020B4F1FD0C88BFAF
:10098800BCF5E06F3FF6AFAEB5EB030C04BFB6EBBA
:10099800020C5FEA500C50F1000041EB045170BDAD
:1009A8000EF0004E4EEA113114EB5C04C2BFD4EBDA
:1009B8000C0541EA045170BD41F480114FF0000E5E
:1009C800013C90E645EA060E8DE60CEA135594EADA
:1009D8000C0F08BF95EA0C0F3FF43BAF94EA0C0FDD
:1009E8000AD150EA01347FF434AF95EA0C0F7FF452
:1009F80025AF104619462CE795EA0C0F06D152EAA6
:100A080003353FF4FDAE1046194622E750EA410689
:100A180018BF52EA43067FF4C5AE50EA41047FF49A
:100A28000DAF52EA43057FF4EBAE12E74FF0FF3CFF
:100A380006E000BF4FF0010C02E000BF4FF0010CD0
:100A48004DF804CD4FEA410C7FEA6C5C4FEA430C49
:100A580018BF7FEA6C5C1BD001B050EA410C0CBF98
:100A680052EA430C91EA030F02BF90EA020F0020FA
:100A7800704710F1000F91EA030F58BF994208BF61
:100A880090422CBFD8176FEAE37040F0010070471E
:100A98004FEA410C7FEA6C5C02D150EA013C07D175
:100AA8004FEA430C7FEA6C5CD6D152EA033CD3D0C0
:100AB8005DF8040B704700BF8446104662468C46BA
:100AC8001946634600E000BF01B5FFF7B7FF0028ED
:100AD80048BF10F1000F01BD4DF808EDFFF7F4FF16
:100AE8000CBF012000205DF808FB00BF4DF808EDA1
:100AF800FFF7EAFF34BF012000205DF808FB00BFC4
:100B08004DF808EDFFF7E0FF94BF012000205DF8E5
:100B180008FB00BF4DF808EDFFF7CEFF94BF01209A
:100B280000205DF808FB00BF4DF808EDFFF7C4FF93
:100B380034BF012000205DF808FB00BF4FEA4102E6
:100B480012F5001215D211D56FF47873B3EB625217
:100B580012D94FEAC12343F0004343EA505311F03E
:100B6800004F23FA02F018BF404270474FF00000D0
:100B7800704750EA013005D111F0004008BF6FF00E
:100B8800004070474FF00000704700BF4A0011D284
:100B980012F5001211D20DD56FF47873B3EB6252CF
:100BA8000ED44FEAC12343F0004343EA505323FADB
:100BB80002F070474FF00000704750EA013002D150
:100BC8004FF0FF3070474FF00000704753B94AB9F3
:100BD800002908BF00281CBF4FF0FF314FF0FF303D
:100BE80000F00CB8ADF1080C6DE904CE00F010F877
:100BF800DDF804E0DDE9022304B07047704700BF68
:100C0800034613F8012B002AFBD1181A0138704744
:100C18002DE9F04786468C460846089E15467446D8
:100C28001946002B40F0C2808542B2FA82F245D9BB
:100C38004AB1C2F1200300FA02FC2EFA03F39540F0
:100C480043EA0C0C94404FEA154EA8B2BCFBFEF8E0
:100C5800230C0EFB18CC08FB00F943EA0C4399451A
:100C680028D9EB1808F1FF3704D2994502D9A8F121
:100C780002072B44A3EB0903A4B2B3FBFEFC0EFB53
:100C88001C330CFB00F044EA0344A04214D92C198D
:100C98000CF1FF3304D2A04202D9ACF102032C4478
:100CA800241A43EA07401EB1D4400023346073601D
:100CB800BDE8F0874746DDE76346F1E792BB431B93
:100CC80001214FEA154EAFB2B3FBFEFC200C0EFB20
:100CD8001C330CFB07F840EA0343984562D9EB182C
:100CE8000CF1FF3004D2984502D9ACF102002B4434
:100CF800A3EB0803A4B2B3FBFEFC0EFB1C330CFBF6
:100D080007F744EA0344A7424ED92C190CF1FF33E4
:100D180004D2A74202D9ACF102032C44E41B43EAF3
:100D28000040C0E7C2F1200320FA03F1954090404B
:100D38002EFA03F303434FEA154EAFB2B1FBFEFCA4
:100D48000EFB1C10190C0CFB07F841EA0041884502
:100D580004FA02F422D969180CF1FF3004D288454C
:100D680002D9ACF102002944A1EB08019BB2B1FB06
:100D7800FEFC0EFB1C110CFB07F743EA01439F42E4
:100D88000ED9EB180CF1FF3104D29F4202D9ACF115
:100D980002012B44DB1B41EA004192E76046E3E78E
:100DA8006146F7E76046A3E76346B7E7834206D99B
:100DB80016B9002108467BE7C6E900E0F9E7B3FA6F
:100DC80083F78FB9834201D3724508D8BEEB02047A
:100DD80060EB030301209C461EB9002168E73846F2
:100DE800FAE7C6E9004CF8E7C7F1200CBB4022FA45
:100DF8000CF41C432EFA0CF120FA0CF3B840014312
:100E08004FEA14490EFA07F5B3FBF9F81FFA84FE06
:100E180009FB18300B0C08FB0EFA43EA00439A450D
:100E280002FA07F240D9E31808F1FF3004D29A45D4
:100E380002D9A8F102002344A3EB0A0389B2B3FB49
:100E4800F9F809FB183308FB0EFE41EA03418E4509
:100E58002CD9611808F1FF3304D28E4502D9A8F1C4
:100E68000203214443EA0040A0FB0298A1EB0E01D3
:100E78004145CE46434602D306D14D4504D2B9EB8F
:100E8800020E68EB04030138002EA6D0B5EB0E0263
:100E980061EB030101FA0CFC22FA07F34CEA0303A5
:100EA800F940C6E9003198E74046C5E74346D9E727
:100EB8002DE9F04F93B0CDE90023DDE9007B2BF05D
:100EC800004C0D465CEA0701044611D1031885F46D
:100ED8000022524199426F4B934180F0AA80DDE98C
:100EE800002320462946FFF7D9F904460D4618E0A5
:100EF800694A25F000439342A846F0D8864615D1A2
:100F08000028ECD19C45EAD824D1002FE7D1634AC8
:100F1800934240F29180BBF1000FC0F21185DDE9E8
:100F280000452046294613B0BDE8F08F944502D805
:100F380010D1002F76D008F1404808F5801858EAFB
:100F48000E08CCD1FA198BF400235B419045514A25
:100F58009A41C2E7B8F1000F24DA514A944525D9DD
:100F68000226002F4ED0204625F00041BEF1000F8A
:100F780040F0AB82484A934240F07B82BBF1000FBD
:100F880005DA02460B4600204649FFF767FCB8F130
:100F9800000F04460D46C4DA012EC2D105F1004304
:100FA8001D46BEE7002F64D00026DCE73B4A944587
:100FB80003D8002FF8D13E4624E04FEA2C52A2F283
:100FC800FF32142A0CDDC2F1340227FA02F606FABF
:100FD80002F2BA42EDD106F00106C6F10206C0E7F8
:100FE800002F40F03482C2F114024CFA02F606FADD
:100FF80002F262452B4A28D1944528D006F0010612
:10100800C6F10206BBF1804FADD1274A9342AAD858
:10101800264A93424CD922462B4620462946FFF7BA
:10102800F3FA62E703F1404202F5801202437FF4CB
:101038006EAF1C4D002474E7BBF1000F80F2808472
:10104800DDE9004303F100456BE79445B3D1BBF1FB
:10105800000FBFF666AF0022002320462946FFF79F
:101068003BFD78B14FEAD87013B0BDE8F04F06F0F9
:1010780097BE0C4A9445EAD0BBF1804F40F0DD8121
:101088003E46C2E722462B4606490020FFF7E6FB0C
:101098002BE700BF0000F0FF0000F07FFFFFEF3FED
:1010A800FFFF3F430000F03FFFFFEF5F0000501ECF
:1010B8005EEA030E204625F0004100F002824FEA66
:1010C800D872013A0992324300F0E481CA4A08EA28
:1010D8000202002A00F0D58200241A15A2F2FF327B
:1010E80022440E92C54AC3F3130343F07F5593423B
:1010F80045F4401508DDC24A934240F3CA820E9B6C
:1011080001330E93A5F580154FF0000A4FEACA0384
:101118000F93BC4B03EBCA03D3E900342946CDE94E
:101128000A341A462346CDE90C01FFF7B5F8DDE984
:101138000C2380468946DDE90A01FFF7AFF802462D
:101148000B460020B049FFF789FBCDE910010246A4
:101158000B4640464946FFF757FACDE90601DDE957
:101168000634CDE9043400230493DDE904346D101A
:1011780045F0005505F50025CDE90234002205EBC0
:101188008A4314461D462046DDE902232946FFF717
:101198003BFA02460B4640464946FFF77DF8DDE933
:1011A8000A238046894620462946FFF775F80246F5
:1011B8000B46DDE90C01FFF76FF8DDE90223FFF7C5
:1011C80023FA02460B4640464946FFF765F8DDE933
:1011D8001023FFF719FADDE90623CDE90A011046C5
:1011E8001946FFF711FA72A3D3E90023804689460E
:1011F800FFF70AFA70A3D3E90023FFF74FF8424636
:101208004B46FFF701FA6EA3D3E90023FFF746F830
:1012180042464B46FFF7F8F96BA3D3E90023FFF7E3
:101228003DF842464B46FFF7EFF969A3D3E900239F
:10123800FFF734F842464B46FFF7E6F966A3D3E9D1
:101248000023FFF72BF8424604460D464B4640461E
:101258004946FFF7D9F902460B4620462946FFF7CB
:10126800D3F9DDE9022304460D46DDE90601FFF75F
:1012780015F8DDE90A23FFF7C7F922462B46FFF7E1
:101288000DF8DDE9022304460D4610461946FFF71E
:10129800BBF902460B46CDE90C235C4B0022FEF756
:1012A800FDFF22462B46FEF7F9FFDDE90223002069
:1012B80080468946FFF7A8F9544BCDE90201002280
:1012C80040464946FEF7E8FFDDE90C23FEF7E4FF58
:1012D80002460B4620462946FEF7DEFFDDE90623D7
:1012E800FFF792F9DDE90A2304460D4640464946D0
:1012F800FFF78AF902460B4620462946FEF7CEFF3D
:1013080004460D4602460B46DDE90201FEF7C6FF1C
:1013180033A3D3E90023002080468946FFF774F9F8
:10132800DDE90223CDE9060140464946FEF7B4FF50
:1013380002460B4620462946FEF7AEFF2AA3D3E90C
:101348000023FFF761F92AA3D3E9002304460D46D9
:1013580040464946FFF758F902460B4620462946BB
:10136800FEF79CFF0F9A2A4B1344D3E90023FEF79C
:1013780095FFCDE902010E98FFF7DCF80F9A254B8F
:101388001344D3E900890446DDE902230D46DDE96B
:101398000601FEF783FF42464B46FEF77FFF2246D3
:1013A8002B46FEF77BFF002022462B4634E000BF89
:1013B800EF4E454A287ECA3F65DBC9934A86CD3F32
:1013C80001411DA96074D13F4D268F515555D53F18
:1013D800FFAB6FDBB66DDB3F033333333333E33FB0
:1013E800000000E009C7EE3FFD033ADC09C7EE3F05
:1013F800F5015B14E02F3EBE0000F07F8E980300DD
:1014080079B60B00409D00080000F03F000008403E
:10141800209D0008309D0008CDE90401FEF73CFF3F
:1014280042464B46FEF738FFDDE90623FEF734FF58
:1014380002460B46DDE90201D6E0BB4A934515D1C9
:101448002046294613B0BDE8F04F06F0BDBCBEF1FA
:10145800000F1FD1B54A9342204625F0004107D11D
:10146800BBF1000FBFF641AD76468AE53E467AE508
:101478007646AF4A934217D1BBF1000F05DA024610
:101488000B460020AA49FFF7E9F9B8F1000FBFF6AB
:101498002CAD36B92046294613B0BDE8F04F06F00A
:1014A8008BBC04460D4677E57BB9BBF1000F08DA23
:1014B800B8F1000F03DA731E58425841D4E51846B4
:1014C800D2E5012E7FF411AD2BE54FEAD87202F177
:1014D800FF3ECDF824E05EEA060EDBD0BCF1844F77
:1014E8007FF6F4AD934CA445934C13D9A34208D886
:1014F800BBF1000F08DA002013B0BDE8F04F06F08A
:1015080043BCBBF1000FF6DC002013B0BDE8F04F80
:1015180007F0D4BEA34205D2BBF1000F02EA0600D1
:10152800F3DAE9E7824CA34205D9BBF1000F02EADE
:101538000600E1DCE9E77E4B0022FEF7ADFE70A372
:10154800D3E9002304460D46FFF75EF86EA3D3E9FE
:1015580000238046894620462946FFF755F8774BF1
:10156800CDE90201002220462946FFF74DF8024640
:101578000B4667A1D1E90001FEF78EFE22462B46F5
:10158800FFF742F802460B4600206749FEF784FE43
:101598002246CDE904012B4620462946FFF734F8B8
:1015A80002460B46DDE90401FFF72EF85AA3D3E9FA
:1015B8000023FFF729F802460B46DDE90201FEF792
:1015C8006BFE02460B4604460D4640464946FEF76A
:1015D80065FE002042464B46CDE90401FEF75CFE5D
:1015E80002460B4620462946FEF756FE099B013E59
:1015F8001E4314BF4E4B524B00220026CDE9022356
:1016080004460D465B46DDE900013246FEF744FE1E
:10161800DDE90423FEF7F8FF5F46DDE900238B468A
:10162800824629462046FEF7EFFF02460B46504603
:101638005946FEF733FE3246CDE900013B46DDE967
:101648000401FEF7E1FF0B46024680468946DDE9C4
:101658000001FEF723FE3B4B994204460D468B469C
:101668003BDD01F13F4303F5E003034314D0DDE91B
:10167800020100220023FFF739FA801B18BF01205E
:101688003AE7314B0022FEF7BFFF6FF034040B46F8
:1016980023E54FF0010A39E521A3D3E90023DDE969
:1016A8000001FEF7FBFD424606460F464B46204624
:1016B8002946FEF7F1FD02460B4630463946FFF74C
:1016C80033FA002850D0DDE9020100220023FFF799
:1016D8000DFA003818BF01200EE71C4C21F000431A
:1016E800A34244D91A4B0B44034333D0DDE902012A
:1016F80000220023FFF7FAF9003818BF012004E799
:10170800000000604715F73F44DF5DF80BAE543E1C
:10171800555555555555D53FFE822B654715F73F0D
:10172800FE822B654715973C0000E03F0000F07FE4
:101738000000F03F0000F043FFFFEF3F0000D03F04
:101748000000F0BFFFFF8F4000004043FFCB9040F8
:1017580000346F3F42464B46FEF79EFDDDE900230D
:10176800FFF7D8F90028C1D140F2094304E0864ABE
:10177800934240F2E1801B15A3F2FE334FF4801A26
:101788004AFA03FADA44CAF30A518048A1F2FF314F
:10179800084100EA0A03CAF3130AC1F114014AF422
:1017A800801A4AFA01FABBF1000F404649464FF049
:1017B8000002B8BFCAF1000AFEF76EFD80468946EE
:1017C800DDE9002340464946FEF768FD00245EA394
:1017D800D3E9002320460D46FEF716FF424606468B
:1017E8000F464B4620462946FEF756FD02460B4655
:1017F800DDE90001FEF750FD55A3D3E90023FEF70C
:1018080003FF55A3D3E9002380468946204629468D
:10181800FEF7FAFE02460B4640464946FEF73EFDF5
:1018280004460D4602460B4630463946FEF736FD5D
:1018380032463B4680468946FEF72EFD02460B4659
:1018480020462946FEF728FD424606460F464B46E7
:1018580040464946FEF7D8FE41A3D3E90023044693
:101868000D46FEF7D1FE40A3D3E90023FEF714FD91
:1018780022462B46FEF7C8FE3DA3D3E90023FEF718
:101888000DFD22462B46FEF7BFFE3BA3D3E90023FE
:10189800FEF702FD22462B46FEF7B6FE38A3D3E933
:1018A8000023FEF7FBFC22462B46FEF7ADFE024660
:1018B8000B4640464946FEF7EFFC04460D460246F5
:1018C8000B4640464946FEF79FFE0022CDE900013F
:1018D8004FF0804320462946FEF7DEFC02460B46C1
:1018E800DDE90001FEF7BAFF324604460D463B46E5
:1018F80040464946FEF788FE32463B46FEF7CEFC98
:1019080002460B4620462946FEF7C6FC42464B4691
:10191800FEF7C2FC02460B4600201D49FEF7BCFC40
:1019280001EB0A54B4F5801F08DA524606F0D0F9E4
:10193800DDE90223FFF773BBB24641E72146F7E72B
:1019480000240025FFF7EDBA00000000432EE63F13
:10195800EF39FAFE422EE63F396CA80C615C20BED6
:10196800D0A4BE726937663EF16BD2C541BDBB3E9D
:101978002CDE25AF6A56113F93BDBE166CC1663F7B
:101988003E5555555555C53F0000E03F0000F0FF56
:101998000000F03FF0B595B006460D460021232221
:1019A80001A8009107F01FFC66B35DB3174C272709
:1019B80020462660C4F804D0278100F05FF8064668
:1019C80020B16FF00404204615B0F0BD00211420AA
:1019D80007F058FB232231460BA80A9607F003FCB0
:1019E8000AAB20462781C4E9003500F047F80446D1
:1019F8000028E6D1284600F00BF8002808BF6FF051
:101A08001304E0E76FF01504DDE700BF3808002491
:101A180030B5054685B0B0B10378AF2B13D1447803
:101A2800012C10D1252106F0B9FAB5F825308342EA
:101A38000CD0074B22460749029300231846CDE9EC
:101A4800003306F09BFA002005B030BD2046FBE7C6
:101A5800FCA600087C9C00087FB50BAB012205930F
:101A68000393054B029300231846CDE9003301F098
:101A780055FD07B05DF804FB1CA7000830B58DB014
:101A880038B303682BB342681AB303890BB3012434
:101A9800CDE90423CDE9062304AB0994089306ABEA
:101AA800CDE90A340C4808AA0C4983681D680AABBA
:101AB800A84760B10A4B22460390029300230949C4
:101AC8001846CDE90033FFF7C7FF6FF004000DB0EB
:101AD80030BD6FF01500FAE7DC950008509D00084E
:101AE8001CA700081C9C00087FB50BAB08220593B7
:101AF8000393064B02930023CDE9003218460422D3
:101B080001F00CFD07B05DF804FB00BF3DA700081D
:101B180008B5074B48220021184607F064FB02224B
:101B2800427003228270BDE8084000F053B800BF3D
:101B380044080024F0B5204E1423047887B096F9A1
:101B480000701E4D03FB0743013355F8332032B9AB
:101B580005EBC30393F9043013B907B0F0BD904700
:101B6800142303FB074496F9003005EBC40494F9E9
:101B78000C409C42F1D0A02202FB03535B6803B1E6
:101B880098470594082296F900300D4904930D4BA7
:101B980003930D4B02930023CDE90032184604222B
:101BA800FFF7A2FFA02334705C432B59002BD4D03D
:101BB80007B0BDE8F040184744080024649D0008B9
:101BC800449C000850A700083DA70008004870473B
:101BD800440800241FB5084B082208490393084B02
:101BE80002930023CDE900321846042206F0F0F9EA
:101BF80005B05DF804FB00BFB2AC00084C9C0008BF
:101C080066A700081FB5084B082208490393084B2C
:101C180002930023CDE900321846042206F0D8F9D1
:101C280005B05DF804FB00BFA0AC00084C9C0008A0
:101C380076A700081FB5084B082208490393084BEC
:101C480002930023CDE900321846042206F0C0F9B9
:101C580005B05DF804FB00BF95AC00084C9C00087B
:101C68008CA7000810B586B0FFF7B0FF0446FFF751
:101C7800ADFF94F900304370FFF7A8FF90F90130E9
:101C8800082207490493074B0393074B0293002349
:101C9800CDE900321846042206F09AF906B010BDC4
:101CA8004C9C00088BAC00089BA700081FB50B4B89
:101CB800002404220A49039320460A4B029308236E
:101CC800CDE90043234606F083F9204600F000FBE7
:101CD80004B0BDE8104006F08CB900BF7CAC000829
:101CE8004C9C0008B8A700081FB50A4B08220A49EF
:101CF80003930A4B029300231846CDE900320422CD
:101D080006F066F9012000F0E3FA05B05DF804EB8F
:101D180006F070B96DAC00084C9C0008CBA7000811
:101D28001FB50A4B08220A4903930A4B0293002362
:101D38001846CDE90032042206F04AF9022000F0E4
:101D4800C7FA05B05DF804EB06F055B95EAC0008BB
:101D58004C9C0008DEA700081FB50A4B08220A4958
:101D680003930A4B029300231846CDE9003204225C
:101D780006F02EF9042000F0ABFA05B05DF804EB8C
:101D880006F03AB94FAC00084C9C0008F1A70008CF
:101D98001FB50A4B08220A4903930A4B02930023F2
:101DA8001846CDE90032042206F012F9032000F0AB
:101DB8008FFA05B05DF804EB06F01FB940AC0008D7
:101DC8004C9C000804A800081FB50A4B08220A49C1
:101DD80003930A4B029300231846CDE900320422EC
:101DE80006F0F6F8052000F073FA05B05DF804EB8C
:101DF80006F004B931AC00084C9C000817A800088C
:101E080010B586B0FFF7E2FE0446FFF7DFFE94F94F
:101E180000308370FFF7DAFE90F902300822094992
:101E28000493094B0393094B02930023CDE9003235
:101E38001846042206F0CCF806B0BDE8104006F0BB
:101E4800DEB800BF4C9C000825AC00082AA8000892
:101E58001FB5084B082208490393084B0293002337
:101E6800CDE900321846042206F0B2F805B05DF854
:101E780004FB00BF18AC00084C9C000849A80008E7
:101E88001FB5084B082208490393084B0293002307
:101E9800CDE900321846042206F09AF805B05DF83C
:101EA80004FB00BF05AC00084C9C00085AA80008B9
:101EB8001FB5094B082209490393094B02930023D4
:101EC800CDE900321846042206F082F805B05DF824
:101ED80004EB06F095B800BFF3AB00084C9C000873
:101EE80071A800081FB5094B082209490393094B3B
:101EF80002930023CDE900321846042206F068F860
:101F080005B05DF804EB06F07EB800BFE1AB000851
:101F18004C9C000887A800081FB50A4B08220A49EC
:101F280003930A4B029300231846CDE9003204229A
:101F380006F04EF84FF0FF3005B05DF804EB00F006
:101F48003DBC00BFCEAB00084C9C00089DA8000813
:101F58001FB5094B082209490393094B0293002333
:101F68001846CDE90032042206F032F8012005B007
:101F78005DF804EB00F022BCBAAB00084C9C0008EA
:101F8800B4A800081FB5094B082209490393094B57
:101F980002930023CDE900321846042206F018F80F
:101FA80005B05DF804EB00F0AFB900BFA1AB0008C5
:101FB8004C9C0008CCA800081FB5094B0822094909
:101FC8000393094B02930023CDE9003218460422FB
:101FD80005F0FEFF05B05DF804EB00F0CFB900BFD7
:101FE80088AB00084C9C0008E6A800081FB5094B00
:101FF800082209490393094B02930023CDE90032D3
:102008001846042205F0E4FF05B05DF804EB00F083
:10201800F1B900BF6FAB00084C9C000800A900088C
:102028001FB5094B082209490393094B0293002362
:10203800CDE900321846042205F0CAFF05B05DF864
:1020480004EB00F011BA00BF56AB00084C9C000826
:102058001AA900081FB5094B082209490393094B1F
:1020680002930023CDE900321846042205F0B0FFA0
:1020780005B05DF804EB00F033BA00BF3DAB0008D3
:102088004C9C000834A900081FB5094B08220949CF
:102098000393094B02930023CDE90032184604222A
:1020A80005F096FF05B05DF804EB00F055BA00BFE7
:1020B80024AB00084C9C00084EA900081FB5094B2A
:1020C800082209490393094B02930023CDE9003202
:1020D8001846042205F07CFF05B05DF804EB00F01B
:1020E800F3BA00BF0BAB00084C9C000868A90008B5
:1020F8001FB5094B082209490393094B0293002392
:10210800CDE900321846042205F062FF05B05DF8FB
:1021180004EB00F015BB00BFF2AA00084C9C0008B5
:1021280082A900081FB5094B082209490393094BE6
:1021380002930023CDE900321846042205F048FF37
:1021480005B05DF804EB00F045BA00BFD9AA000855
:102158004C9C00089CA900081FB5094B0822094996
:102168000393094B02930023CDE900321846042259
:1021780005F02EFF05B05DF804EB00F067BA00BF6C
:10218800C0AA00084C9C0008B6A900081FB5084B57
:10219800082208490393084B02930023CDE9003233
:1021A8001846042205F014FF05B05DF804FB00BFD3
:1021B800A7AA00084C9C0008D0A900081FB5084B26
:1021C800082208490393084B02930023CDE9003203
:1021D8001846042205F0FCFE05B05DF804FB00BFBC
:1021E8008EAA00084C9C0008EAA900081FB5084BF5
:1021F800082208490393084B02930023CDE90032D3
:102208001846042205F0E4FE05B05DF804FB00BFA3
:102218007EAA00084C9C000804AA00081FB5084BB9
:10222800082208490393084B02930023CDE90032A2
:102238001846042205F0CCFE05B05DF804FB00BF8B
:1022480071AA00084C9C000818AA00081FB5084B82
:10225800082208490393084B02930023CDE9003272
:102268001846042205F0B4FE05B05DF804FB00BF73
:102278005FAA00084C9C000829AA00081FB5084B53
:10228800082208490393084B02930023CDE9003242
:102298001846042205F09CFE05B05DF804FB00BF5B
:1022A80051AA00084C9C00083FAA00087FB50BAB58
:1022B800012205930393054B029300231846CDE9A9
:1022C800003301F02BF907B05DF804FBCAAC000835
:1022D8001FB5431CDBB2062B0CD9084B0122084959
:1022E800029300231846CDE90033FFF7DFFF05B05E
:1022F8005DF804FB034B1870F9E700BFCAAC00088F
:10230800BC9C0008040100242DE97043194C00F01E
:1023180057FC207000F05AFC00210646207800F097
:1023280083FA0021207800F0D5FAFEF7F3F8024688
:102338000B4600201049FEF7BBFD804689462078F1
:10234800002100F0D9FAFEF7F5F842464B46FEF7B1
:102358005BF904460D463046FEF7DCF802460B46AC
:1023680020462946FDF79AFFFEF710FCBDE87043AA
:1023780000F032BB9C0A0024000024402DE9F04103
:102388001A4C00F01DFC207000F020FC00210546CE
:10239800207800F05FFA0021207800F09BFAFEF721
:1023A800B9F802460B4600201149FEF781FD0646A2
:1023B8000F462078002100F09FFA80462846FEF755
:1023C800A9F804460D464046FEF7B4F832463B46A7
:1023D800FEF71AF902460B4620462946FDF75CFF30
:1023E800FEF7D4FBBDE8F04100F0F6BA9C0A0024E1
:1023F800000024402DE97043194C00F0E1FB2070E7
:1024080000F0EEFB01210646207800F00DFA0121CC
:10241800207800F071FAFEF77DF802460B4600209E
:102428001049FEF745FD804689462078012100F0D5
:1024380063FAFEF77FF842464B46FEF7E5F8044696
:102448000D463046FEF766F802460B4620462946FA
:10245800FDF724FFFEF79AFBBDE8704300F0E2BAEF
:102468009C0A0024000024402DE9F0411A4C00F099
:10247800A7FB207000F0B4FB01210546207800F08E
:10248800E9F90121207800F025FAFEF743F8024621
:102498000B4600201149FEF70BFD06460F46207833
:1024A800012100F029FA80462846FEF733F8044651
:1024B8000D464046FEF73EF832463B46FEF7A4F886
:1024C80002460B4620462946FDF7E6FEFEF75EFB70
:1024D800BDE8F04100F0A6BA9C0A002400002440A0
:1024E8002DE970431A4C00F06BFB207000F084FB60
:1024F80002210646207800F097F90221207800F0A2
:10250800E9F9FEF707F802460B4600201149FEF7E5
:10251800CFFC804689462078022100F0EDF9FEF7CD
:1025280009F842464B46FEF76FF804460D4630461A
:10253800FEF700F802460B4620462946FDF7AEFE98
:10254800FEF7FCFA00B2BDE8704300F0A3BA00BF82
:102558009C0A0024000024402DE9F0411B4C00F0A7
:102568002FFB207000F048FB02210546207800F080
:1025780071F90221207800F0ADF9FDF7CBFF024692
:102588000B4600201249FEF793FC06460F462078BA
:10259800022100F0B1F980462846FDF7CBFF04463A
:1025A8000D464046FDF7C6FF32463B46FEF72CF87F
:1025B80002460B4620462946FDF76EFEFEF7BEFA98
:1025C80000B2BDE8F04100F065BA00BF9C0A0024E3
:1025D800000024402DE970431A4C00F0F1FA2070F5
:1025E80000F016FB03210646207800F01DF90321B0
:1025F800207800F06FF9FDF78DFF02460B460020AA
:102608001149FEF755FC804689462078032100F0E1
:1026180073F9FDF78FFF42464B46FDF7F5FF044679
:102628000D463046FDF786FF02460B4620462946F2
:10263800FDF734FEFEF782FA00B2BDE8704300F001
:1026480059BA00BF9C0A0024000024402DE9F0413B
:102658001B4C00F0B5FA207000F0DAFA03210546A9
:10266800207800F0F7F80321207800F033F9FDF71F
:1026780051FF02460B4600201249FEF719FC064698
:102688000F462078032100F037F980462846FDF7E9
:1026980051FF04460D464046FDF74CFF32463B4687
:1026A800FDF7B2FF02460B4620462946FDF7F4FD2A
:1026B800FEF744FA00B2BDE8F04100F01BBA00BFD3
:1026C8009C0A0024000024402DE970431A4C00F0B5
:1026D80077FA207000F0A8FA01210646207800F069
:1026E800A3F80121207800F0F5F8FDF713FF024662
:1026F8000B4600201149FEF7DBFB8046894620780F
:10270800012100F0F9F8FDF715FF42464B46FDF7A9
:102718007BFF04460D463046FDF70CFF02460B468C
:1027280020462946FDF7BAFDFEF730FA80B2BDE82B
:10273800704300F007BA00BF9C0A00240000244040
:102748002DE9F0411B4C00F03BFA207000F06CFAC8
:1027580001210546207800F07DF80121207800F05D
:10276800B9F8FDF7D7FE02460B4600201249FEF7DE
:102778009FFB06460F462078012100F0BDF88046F1
:102788002846FDF7D7FE04460D464046FDF7D2FE23
:1027980032463B46FDF738FF02460B46204629469F
:1027A800FDF77AFDFEF7F2F980B2BDE8F04100F0DE
:1027B800C9B900BF9C0A002400002440084B1978BE
:1027C80004290BD8431C03D1064B187800F06AB8CB
:1027D800012803D1034B187800F050B8704700BFA8
:1027E800040100249C0A002402281FB54FF00003AE
:1027F8000DD90A4A18460A490093CDE90132012247
:1028080005F004FC6FF0010005B05DF804FB052934
:1028180001D9044AEEE71846F6E700BF10AD0008F4
:102828003C9C00081FAD000838B504460D46FFF76C
:10283800DBFF58B904EB8404054B611903EB8103F2
:102848005A789978914284BF01325A7038BD00BFD6
:102858000501002438B504460D46FFF7C5FF48B901
:1028680004EB8404044B611903EB81035A780AB121
:10287800013A5A7038BD00BF0501002438B5044636
:102888000D46FFF7B1FF48B904EB8404044A611907
:1028980012F8213013B1013B02F8213038BD00BFD6
:1028A8000501002438B504460D46FFF79DFF68B9B9
:1028B80004EB8404064A611902EB810412F8213002
:1028C800E4789C4284BF013302F8213038BD00BF50
:1028D8000501002438B504460D46FFF785FF08B109
:1028E800C0B238BD04EB8404024B611913F821000F
:1028F800F7E700BF0501002438B504460D46FFF789
:1029080073FF08B1C0B238BD04EB8404024B6119EF
:1029180003EB81035878F6E7050100240048704767
:10292800AC01002400487047840100240048704727
:10293800D40100247FB50BAB082205930393064B03
:1029480002930023CDE900321846042200F0E6FD88
:1029580007B05DF804FB00BF48AD000810B51B4B7D
:1029680086B0002404220393194B20461949029388
:102978000823CDE900432346CDE90444FFF7DAFFF5
:10298800FFF7C6F80F2304A805948DF81030FFF759
:10299800D1F804A8FFF7CEF8FFF7C8FF00220023FC
:1029A80004A903F0E7FE38B904A8FFF7C3F800212B
:1029B800642006F067FBEFE7FFF7B0FF0022002373
:1029C80004A903F0D7FE0028EED0F0E760AD0008B8
:1029D80048AD0008249C00081FB50C4CA0420DD936
:1029E8000B4B08220B4903930B4B02930023184609
:1029F800CDE90032042205F019FB2046074B084AAE
:102A08001B781B01D05004B010BD00BF8096980001
:102A180031AF00082C9C000884AD00089D0A0024F2
:102A28008C0800241FB544F62064A04215D9134B26
:102A3800082104220393124B029300231846CDE980
:102A48000031104905F0F2FA20460F4B1A780F4B67
:102A580003EB0213586004B010BDF928F5D8074BF2
:102A68000822084903930A4B029300231846CDE92C
:102A78000032042205F0DAFAFA20E6E724AF00086B
:102A8800BBAD00082C9C00089D0A00248C0800247B
:102A9800F0AD00081FB541F28834A04215DD0E4B99
:102AA80003930E4B0822029300230D491846CDE9E3
:102AB8000032042205F0BAFA20460A4B1A780A4B6B
:102AC80003EB0213188104B010BD084CA042F4DADD
:102AD800014B0393064BE5E717AF000825AE000846
:102AE8002C9C00089D0A00248C08002478ECFFFF29
:102AF80058AE0008B0F5B47F1FB504460FDD0C4B87
:102B0800A4F5B47408220B49039324B20A4B029328
:102B18000023CDE900321846042205F087FA074B56
:102B28001A78074B03EB02135C8104B010BD00BF99
:102B38000AAF00082C9C00088BAE00089D0A0024F0
:102B48008C08002464281FB50DD90B4B08220B49AB
:102B580003930B4B029300231846CDE9003204225D
:102B680005F064FA6420074B1A78074B03EB02134D
:102B7800988105B05DF804FBFDAE00082C9C0008A8
:102B8800AAAE00089D0A00248C08002401281FB55D
:102B98000CD9084B01220849029300231846CDE9B5
:102BA800003305F043FA05B05DF804FB034B1870D9
:102BB800F9E700BFDFAE00082C9C00089D0A00243E
:102BC800014B1878704700BF9D0A0024024B034A46
:102BD8001B781B01D05870479D0A00248C080024DC
:102BE800034B1A78034B03EB02135868704700BF76
:102BF8009D0A00248C080024034B1A78034B03EB2E
:102C08000213B3F9080070479D0A00248C080024B9
:102C1800034B1A78034B03EB0213B3F90A0070470E
:102C28009D0A00248C080024034B1A78034B03EBFD
:102C380002139889704700BF9D0A00248C0800245D
:102C4800054B00215A780AB1013A5A7001310C3308
:102C58000529F7D1704700BF000000242DE9F0478F
:102C680086B03D4D284606F0E6F80446E8B93B4BE9
:102C780001223B490090CDE90103034605F0E6F93E
:102C8800384B0122364920460094CDE901432346BA
:102C980005F0DCF9344B0122314920460094CDE996
:102CA8000143234605F0D2F9FEE72A692846A968B8
:102CB800136843F4804313604FF001120B680E2130
:102CC8009847002229492A4806F06BFA6422002313
:102CD800284FDFF88C802648CDE9002304F04CFD0E
:102CE800254C00264FF00109636818681D79D0F853
:102CF80010A0836804A95B68984738B9DAF80020FF
:102D080009FA05F5049B53402B421BD06578CDB9D1
:102D1800237A4FF0010A8DF81030CDF814A0FFF790
:102D2800FDFD0022002304A903F0CCFC40B12B4692
:102D38005246414628460095CDE9015705F086F9E7
:102D48002378637001360C34052ECDD10021642020
:102D580006F098F9C4E700BFBC94000846AF000825
:102D6800649C00085EAF00087FAF0008492C00088B
:102D780000030024B6AF000800000024F0B5314B72
:102D880085B00025042203932F4B28462F49029330
:102D98000823CDE900532B4605F068F92C4C204652
:102DA80006F049F8034600BB2A4A28490090CDE9B5
:102DB8000102012205F05AF9254D274E234FA36839
:102DC800012128465B699847002808DA0023012278
:102DD800394602961846CDE9003305F047F9002137
:102DE80042F2107006F04EF9E9E726692946A26812
:102DF8002046336823F00103336013684FF4202220
:102E08009847002809DA154B0122104928460095F1
:102E1800CDE901532B4605F029F93368DB07A36890
:102E28004FF001010A4854BFDB681B699847002826
:102E3800C2DA0B4B01220549029300231846CDE95B
:102E48000033B7E773B00008FDAF0008A49C000882
:102E58005C95000811B000085AB0000826B00008B8
:102E680042B000082DE9F04F91B0840705460E46A0
:102E7800009302F00403DDF868800293C2F3C203F2
:102E8800039203F10103059340F0BA81041D30B1A8
:102E9800072909D86FF01B0011B0BDE8F08F01F0C9
:102EA80007063444C6F10806009B4FF000094FF0AE
:102EB800040A591E4FF0FF334F46CB460193534641
:102EC800CDF810900DB1009A22600598002800F303
:102ED800E8809848009A824203D397488242C0F01B
:102EE800E080039AA4EB050E92074FEA9E0000F1DA
:102EF80003810F2F00F2B180002D00F0058107F14A
:102F080040020DEB020C019A0CF8200C0CF8102C66
:102F1800049801300490E7E07A285DD84B280ED851
:102F2800472859D829282DD8252852D054D82028C0
:102F38007AD02338D0F1000B4BEB000B74E04C38FF
:102F48002E2849D8DFE800F07048484848484848E3
:102F5800484848484B484848484848484859484BD2
:102F68004B595959704B6D487048184B184848824E
:102F78007F4B48484B487F0000204FF0000B4FF034
:102F8800040A38E02A380122C0B202FA00F010EA36
:102F98000E0F49D110F0625C2FD110EA020B43D01A
:102FA8006046013C5444B4FBFAF40AFB04F4002DD7
:102FB80061D0A3EB050CA444B4453FF66BAF0028E1
:102FC80068D1042B47D158F8043B23600434042308
:102FD8002AE0019A013A01924FF0000B24E011F81F
:102FE800010C6C2834D111F8023C00206C2B83466C
:102FF800C5D14FF0080A5346D3E708F1070807344C
:1030080028F0070824F00704F8E802AB35B1069861
:103018002044B0423FF63EAFC4E900AB08344FF05D
:10302800000B4FF0080A534611F8010F002878D01A
:10303800BBF1000F7FF470AF2528F5D1019B4FF04D
:10304800010B013301934FF0040AECE7584694E76B
:1030580000208346A5E7082B02D06FF015001BE778
:1030680008F1070828F00708F8E80223C4E9002354
:1030780008340823D8E768B9042B02D108F10408FA
:10308800A4E7082BE9D108F1070828F0070808F198
:103098000808EDE7059A013A059258F8042B0092C2
:1030A80010E7039A900720D5A4EB050E4FF0010C0A
:1030B8004FEA9E00BEF5007FCFD20F2FCDD8F5B1D5
:1030C80007F14002C0B20DEB020E019A0EF8200C77
:1030D8000EF8102CBCF1000F3FF41AAF60F07F001F
:1030E80009F101090EF8200C0137C5F10802043472
:1030F8004FF6DA7E069297E74FF0000CDAE7BCF15C
:10310800000F01D00136EFE7029802360028EBD114
:103118000098CDE90631FDF773FD0644DDE9063177
:10312800E2E7631BB3F5806F97D23DB9A6F10804B7
:10313800E018B1E604930008F8BA00089B08029A60
:1031480028602B709DF81030C2B1EB7085F80290A2
:10315800B9F1000F05D008A80022C5F1010C97426B
:103168000ED1C5F101030DF120084FF0000A0DF151
:10317800300B0193574512D1601B8DE66B70E5E764
:1031880010F8013B190608D50CEB040E03F07F0379
:10319800B6453FF67FAE04F8013B0132DFE7B9F1EF
:1031A800000F03D098F90020002A17DB029BD3B147
:1031B8001AF80B2004F8012B0022019B181910445F
:1031C800B0423FF667AE98F80000009904F8010B8A
:1031D8002046039205F0F9FF039A14440AF1010A04
:1031E80008F10108C6E798F8002055F82230009346
:1031F800029B009845F82230FDF702FD421CDCE7EF
:103208006FF00D0048E600BF014B1860704700BF23
:103218003C00002480B505460E461746984603F044
:103228008BFFDFF82090034606F05EF8044642461E
:1032380049F8003039463046A84754F8090000F0EC
:103248002FFF00BF08000000054B00205A6822F03D
:1032580002025A605A6822F001025A60704700BFA1
:103268000010005C164B82B0D3F8E02042F00072E8
:10327800C3F8E020D3F8E02002F000720192019A2E
:10328800D3F8F42042F00202C3F8F420D3F8F42073
:1032980002F002020092009A0A4AD2F80423D207E6
:1032A80006D503F50053D3F89030002002B07047DC
:1032B800D3F8A02042F00802C3F8A020F5E700BF29
:1032C80000440258000400580C4B0D4A1A600D4A7D
:1032D800D36823F03F0343F00403D3600A4B1A6812
:1032E80041F20303B3EB124F06D1084AD2F8083172
:1032F80043F00103C2F80831704700BFD40000242E
:103308000090D003004802580010005C0080005173
:103318002DE9F84F814630480F4604F0E3FF064692
:1033280070B92E4C0546DFF8B8B04FF0010AA04638
:103338005C4507D3B9F1000F02D04FF0010AFDB97F
:10334800BDE8F88F237B83B12368DB680BB1204687
:103358009847636883F806A023681B6943B96368C4
:1033680004222046196804F0E2FF01361034DFE732
:10337800204698470028F2D00AFA06F31D43F4E7DE
:10338800A94695FAA5F4B4FA84F40AFA04F32601D6
:1033980008EB04146FEA030B25EA0305237B63B1EA
:1033A80058F806301B698BB946440422204609EABE
:1033B8000B097368196804F0BAFF002DE1D11FB139
:1033C8006420002105F05EFE4D46B8E72046984788
:1033D8000028F2D1E8E700BFB4080024EC9C0008FC
:1033E800FC9C0008014B53F82000704770A30008AC
:1033F80008B5034608462BB1044A136000F080FA6A
:10340800002008BD6FF01500FBE700BF4000002456
:1034180000230C4A4FF47A710B4810B513700B4A0D
:1034280013600B4A1360FFF7E3FF0A4B0A4918467B
:103438008B4200D310BD1A1A5C6810331211013286
:103448002271F5E79E0A0024DD820008AC080024FA
:10345800B0080024EC9C0008FC9C000870B50B4DDB
:10346800297841B90A4C01200A4EFFF751FFB442AE
:1034780002D301232B7070BD63685B791BB123688D
:1034880020469B6898471034F1E700BF9E0A002445
:10349800EC9C0008FC9C000810B50446084804F0A1
:1034A80021FF5CB1074BBFF35B8F53E8001F013965
:1034B80043E80012002AF8D1BFF35B8F10BD00BFAC
:1034C800AC080024B00800240A4B70B505460A4C25
:1034D8000A4E1B689847A860B44200D370BD636861
:1034E8005B7923B12368294620461B689847103426
:1034F800F2E700BF40000024EC9C0008FC9C000898
:10350800044A054B9B1AB1EBD30F34BF52F8310074
:10351800002070471C9C0008EC9C00082DE9F04F27
:1035280087B004460E46934604AF98463D6BD7E9EC
:103538000EA9BAF1000F1ED0C7F804901021CDF8DB
:10354800009053467A6B0020FFF78CFCB0F5006FB3
:10355800014611D340F2FF73022219490393194B14
:10356800029300231846CDE9003304F002FF0C371C
:10357800BD46BDE8F08F514604F007040BF0070B79
:10358800E40044EA8B1444EA412444EA055417351C
:103598000D4425F00705ADEB050D04ADBAF1000F9C
:1035A80007D0CDF8009053467A6B05F11000FFF76D
:1035B80059FC434622463146284604F0C1FED6E768
:1035C8008C9C0008DDB00008406820B1034BC01A8D
:1035D80040F3CF0070474FF0FF3070471C9C000845
:1035E8000EB403B503AB0146054853F8042B019309
:1035F80000F0EAFF02B05DF804EB03B0704700BFCB
:10360800B7830008CA0605D48B064CBF0249034994
:10361800FFF7E6BF704700BF16B1000815B10008F4
:103628002DE9F04F87B004460D4690469DF844605A
:103638009946002E00F0A280159B03F0020A03F0C1
:1036480001030493159B03F0080B03F4807305939F
:1036580004F06BFE024600283DD095492046FFF74E
:10366800BFFF0746BAF1000F09D0159B13F0440FAE
:1036780033D12A468F492046FFF7B2FF0744049BFF
:1036880053B18D4B20468D4953F826208C4B002A88
:1036980008BF1A46FFF7A4FF059B002B49D0BBF1D2
:1036A800000F64D1B8F1000F66D042468549204624
:1036B800FFF796FF0546129B3D44002B6DD1149BE6
:1036C800002B73D1159BDB0700F1EB801599204681
:1036D800FFF798FFD8E00746C4E77B4B1868002837
:1036E800CCD07A4B4FF47A7A4FF03C0C1B68B5FB80
:1036F800F3F5B5FBF0F100FB11554FF461630AFBDC
:1037080005F5B1FBF3F2B5FBF0FE03FB121100FB6C
:103718001E55B1FBFCF30AFB05F50CFB1311B5FBB9
:10372800F0F5009120466A49CDE901E5FFF758FF19
:10373800A4E7BBF1000F1DD0664B2046664953F83D
:103748002620FFF74DFF0546B8F1000F05D0424689
:103758005C492046FFF744FF0544B9F1000FAAD0A1
:103768004A465E492046FFF73BFF0544A3E74FF072
:103778000009E1E75D46E7E745469CE7B9F1010F37
:10378800129B06D1002B66D1149B002B7CD0002500
:103798000CE0002BF8D052485EE05248129B2246BB
:1037A800514904F054FD149B002B6AD0DFF83C818A
:1037B800DFF83C91149F4FF0000B15992046102F0D
:1037C80028BF1027FFF71EFF5D4547DC139B4FF00E
:1037D800010B494620461A78FFF702FF1BF0070F36
:1037E80003D141462046FFF7FBFE5F453DD9139BB9
:1037F8004946204613F80B20FFF7F2FE0BF1010BA8
:10380800BBF1100FEAD14FF0000A3A492046DFF821
:10381800E8B0FFF7E5FE5246139B20469A5CA2F1FA
:1038280020015F29594628BF2E22FFF7D9FE0AF149
:10383800010ABAF1100F1DD01AF0070F03D1414643
:103848002046FFF7CDFE57455246E5D8414620466B
:10385800FFF7C6FEEBE7234835469FE7414620467B
:103868000BF1010BFFF7BCFEAEE724492046FFF73A
:10387800B7FEC3E7139B3B441393149BDB1B1493C2
:1038880098D1002E7FF41EAF6268A1682068D2E943
:10389800002304F07EFD636800221A6007B0BDE8CB
:1038A800F08F074A20460549FFF79AFE0EE700BF4A
:1038B8001DB1000821B1000880A3000846B1000826
:1038C80018B1000849B10008BC080024B808002451
:1038D8002AB1000894A300084DB1000853B10008AC
:1038E800D3830008B7830008D145000860B10008F9
:1038F80058B1000862B1000864B100085EB1000860
:1039080000210123064A904206D8064A01B901233C
:103918001360054B18607047400801215B00F2E70F
:1039280040420F00B8080024BC080024F8B50D4632
:1039380004464618054FB44201D12846F8BD14F88C
:10394800011BBB6801485B689847F4E7BC95000811
:10395800014B036001207047DCA3000870B50646E0
:1039680086B00D46002938D08B68002401220593C3
:1039780020464B6804930B6823490393234BCDE9F6
:1039880000440293234604F098FD6B6901221E4906
:10399800059320462B690493EB68009403931C4B12
:1039A800CDE90143234604F088FDEB69012216495D
:1039B80003932046174B0094CDE90143234604F0B6
:1039C8007CFDAB690122104903932046124B0094F9
:1039D800CDE90143234604F070FD012E0DD1EFF32C
:1039E8000583103B3246084903930C4B029300238E
:1039F8001846CDE9003304F060FD2946304606B08C
:103A0800BDE8704002F0CABCB49C0008B1B100081F
:103A1800E0B100080FB200081EB200084CB200085E
:103A280030BFFFF7FDBF00BF2DE9F0410B4E054643
:103A3800DFF82C80324606EB0807CC1B09492046E4
:103A480005F0C3FBA019083C4246002105F0CBFB5A
:103A580007F108002C67BDE8F08100BF00000000F6
:103A680004000000FC9C0008054B5A699B689A42B8
:103A780004D0044A536843F080535360704700BF32
:103A8800680A002400ED00E0F0B5444B85B000243E
:103A9800074602930E462346012241492046CDE9B6
:103AA800004404F025FD3F4B9B6ADB0465D53E4B83
:103AB800204601223A490094CDE90143234604F007
:103AC80017FD1720374B9B6A1D050AD5374B012276
:103AD8003349029300231846CDE9003304F008FD6A
:103AE8001820304DAB6A9C051FD50024304B0122AD
:103AF8002B49204602932346CDE9004404F0F8FC04
:103B0800AB6BAA6A10040FD503930122294B2046F8
:103B180023490094CDE90143234604F0E9FC1FB191
:103B2800AB6A23F40043AB6219201E4B9B6A59050C
:103B38000AD5214B01221A49029300231846CDE9E0
:103B4800003304F0D5FC1A20164A936A13F48073E4
:103B580015D01A4B01221249029300231846CDE9C9
:103B6800003304F0C5FC1B200E4A936A43F47F43DC
:103B780093620023337005B0F0BD1620A2E7926A65
:103B88009204F1D50E4A184605490093CDE9013251
:103B9800012204F0ADFC1C20E6E700BF5FB200087C
:103BA800B49C000800ED00E075B2000886B2000879
:103BB80099B20008B2B20008C7B20008E2B2000821
:103BC800FAB200081FB50024374B01223749029387
:103BD80020462346CDE9004404F08AFC344B9B6A16
:103BE8009A015ED5334B2046012230490094CDE935
:103BF8000143234604F07CFC1E202D4B9B6ADB010D
:103C08000AD52D4B01222949029300231846CDE9F4
:103C1800003304F06DFC1F20254B9B6A1C030AD55A
:103C2800264B01222149029300231846CDE900338F
:103C380004F05EFC21201E4B9B6A59030AD5204BD9
:103C480001221A49029300231846CDE9003304F0F3
:103C58004FFC2220164B9B6A9A030AD5194B012266
:103C68001249029300231846CDE9003304F040FCC2
:103C780023200F4B9B6ADB030AD5134B01220B4908
:103C8800029300231846CDE9003304F031FC2420C8
:103C9800074A936A6FEA03436FEA1343936204B0D7
:103CA80010BD1D20A9E700BF29B30008B49C000877
:103CB80000ED00E041B3000854B300086EB30008FB
:103CC8008CB30008B1B30008CBB300082DE9F0436A
:103CD8004E4B85B0002480460293894623461646FB
:103CE8004B4901222046CDE9004404F001FC494B30
:103CF8009B6ADF0640D5484B204600940122444980
:103D0800CDE901432346112404F0F2FB414B9B6AA1
:103D18001D070AD5414B122401223D490293002375
:103D28001846CDE9003304F0E3FB3A4DAB6A980737
:103D380024D500243A4B36490122029320462346D3
:103D4800CDE9004404F0D4FB6F6BAB6A190659D572
:103D5800344B01222E49204603970094CDE90143B4
:103D6800234604F0C5FBB9F1000F03D0AB6A23F07A
:103D78008003AB62132403E01024C7E76FF0150734
:103D8800244B9B6ADA070AD5274B142401222049C1
:103D9800029300231846CDE9003304F0A9FB1D4B1C
:103DA8009B6A9B060AD5214B1524012218490293C8
:103DB80000231846CDE9003304F09AFB154B9A6AA4
:103DC800D50602D49A6A90070AD55B68190507D503
:103DD8004146384600F020FA10B180F309880224E1
:103DE8000C4B9A6A920603D55A6A22F400525A6218
:103DF8009A6A204642F0FF029A620023337005B0A7
:103E0800BDE8F0836FF01507B4E700BFF6B300080C
:103E1800B49C000800ED00E00CB4000886B200086D
:103E28003FB4000857B400086DB40008FAB200089F
:103E3800774B2DE9F0415F6890B004460023C7F343
:103E4800080683F31188BFF36F8F02F07F40B0F14B
:103E58007F4F0CD102F00C00082819D16D4A184682
:103E68006D490093CDE90132012204F041FB0025A0
:103E78002C464FF00008F31E8DF81F80092B00F226
:103E8800AD80DFE803F00BA1A59DABABABABABA955
:103E9800120746BF0C461D460125EAE75F4B012283
:103EA8005D495B4FCDF80080CDE9018300231846BA
:103EB80004F01EFB8DF81F80FE6A16F0020605D07E
:103EC800574BCDF80080CDE9018306E0FB6A002B53
:103ED8000BDA544B0096CDE90163002301224E49C9
:103EE800184604F005FB00223BE0FB6A5B00FAD5AC
:103EF8004D4B0122484930460096CDE901633346CF
:103F080004F0F6FA7B69A26943F480737B61BFF31E
:103F18004F8FBFF36F8F7B6932F8022C23F48073C5
:103F28007B61BFF34F8FBFF36F8F4DF602739A42D9
:103F38000AD0BB6ADBB2002B34D00DF11F0201217D
:103F48002046FFF7C3FE3DE0236801223249304690
:103F58000393364B0096CDE90163334604F0C8FA63
:103F680022689DF81F30D3B908AE04F120072068F5
:103F7800083454F8041C3346BC4203C31E46F6D129
:103F88000F9B002D3FD0C3F3080121B96FEA5323DB
:103F98006FEA43230F9308A91046FFF7DFFC10B020
:103FA800BDE8F081BB6A13F47F4F05D00DF11F0106
:103FB8000120FFF769FD05E0BB6AB3F5803F92D3A6
:103FC800FFF700FE0246CCE70DF11F020021B7E71C
:103FD8000DF11F010020ECE7154B72E717F4F87F8D
:103FE800144A154BA6F1100618BF13460A490122B8
:103FF800CDE90336114B029300231846CDE900336F
:1040080004F076FA6FE723F4FF7323F00103C1E7A6
:1040180000ED00E0BAB40008B49C0008E5B400085C
:10402800FCB400081DB500082BB500084AB5000807
:1040380066B50008A1B400088CB400088AB5000869
:10404800044B5A6942F010025A615A6922F0080278
:104058005A61704700ED00E0EFF30880EFF3098143
:1040680001B57246FFF7E4FE01BD00BF0A4880F3C0
:104078000888102080F3118808484FF4046140181C
:1040880080F30988EFF314800221084380F3148831
:10409800BFF36F8F00F08EF880290024C01B002426
:1040A800084B9B6883420BD1EFF3058343B1064B62
:1040B8005A6842F080525A605A6A22F400425A62A0
:1040C80003F040B8680A002400ED00E014498A684B
:1040D8004FF030001044EFF3098C80E8F01F1020F7
:1040E80080F31288BFF36F8F0E4F4FF000664A6956
:1040F8008A603E60106F0C4C2060506F002353673D
:1041080080F3118804B5104600F0EAF8BDE80440D1
:1041180002F1300090E8F01F8CF309887047000026
:10412800680A002404ED00E0E40800241EF0040FEF
:104138000CBFEFF30880EFF30980816911F8021CC6
:104148000229FFD001B5724604F0C7F901BD00BFCE
:1041580000B2002807DB0123410900F01F00024AD2
:10416800834042F82130704700E100E000B201319D
:1041780000284FEA0111C9B206DB00F1604000F5E2
:10418800614080F80013704700F00F00014B19548C
:10419800704700BF14ED00E0044B054A23F07F038D
:1041A8009360BFF34F8FBFF36F8F70470000000815
:1041B80000ED00E008B5FFF7EFFF0B4AD2F88830B2
:1041C80023F47003C2F88830EFF3148323F0040358
:1041D80083F31488BFF36F8F02F0C0F903F0E6F899
:1041E80000F054F802F008FA00ED00E042F8203C34
:1041F800203A009B07495360019B21F0010193601D
:10420800029B9161D3604FF08073D36100230265F4
:10421800436770471D320008094A0346906870B129
:1042280013F1160F006E05D0A0F140029A4205D88E
:10423800834203D2814228BF002070470020704784
:10424800680A002415460C4A0E4608B50B4B9060C8
:10425800026F1A6000F044F82C4686F309880020A3
:10426800034B98472046002100220023014C204799
:10427800218500081D320008680A0024E40800248B
:10428800014B10221A61704700ED00E0002304483A
:104298001021C2180133962B82F80013F9D1704708
:1042A80000E100E008B5EFF30583064A103B02EB96
:1042B800C30152F8330049688847BDE80840FFF752
:1042C800D3BB00BF3C960008024B0121024A0348B9
:1042D80000F096B80000082400000024ECA30008B1
:1042E800026E4021044B403A18461A60034AC3E95B
:1042F8000112012100F08EB8E808002400000B1517
:104308001FB5144AD2F89030C3F30723013B9842F3
:104318000FD9114B01220390029300230F4918462D
:10432800CDE9003304F01CF96FF0150005B05DF815
:1043380004FBC2F898000B6823F01F03034343F003
:104348001003C2F89C308B6843F00103C2F8A03018
:10435800ECE700BF00ED00E0A1B50008AC9C000848
:10436800F0B50E4689B01F4604460025B54212DA5C
:10437800606838B3BFB1431E18420FD0134B0122F7
:1043880013490293002303951846CDE9003304F03E
:10439800E7F86FF01502104609B0F0BD1F28EDD9F7
:1043A80021680B42EAD1236805A9059304F0C8F8EF
:1043B800A3680343D0B20793FFF7A2FF10F1160FCB
:1043C800E7D0421C01350C34D0E700BFC7B5000860
:1043D800AC9C0008044B0522C3F89420BFF34F8F10
:1043E800BFF36F8F704700BF00ED00E0BFF35F8F32
:1043F800024B0022C3F89420704700BF00ED00E094
:1044080010B5034C01232278FFF7AAFF207010BDD6
:10441800A00A00240B4A08B500231278FFF7A0FF72
:1044280010F1160F07D0084A0021D2F89030C3F3D4
:104438000723984200DB08BDC2F898000130C2F893
:10444800A010F2E7A00A002400ED00E058485949FE
:104458002DE9F043D0F8903085B00D68C3F30723F9
:104468009D4200F2A180FFF7C1FF496800229542F2
:1044780001F10C011AD1504C6846504F2570FFF7D6
:1044880067FA00250646DFF83881DFF83891AE4232
:104498001FD1237800204649D1F89020C2F3072283
:1044A80093427BDB0020FFF795FF4CE0C0F8982093
:1044B80051F80C3C23F01F031343013243F010035F
:1044C800C0F89C3051F8043C43F00103C0F8A03018
:1044D800CDE700984FEA051C00EB0511CB683B407F
:1044E800B3F5000F44D00AD8B3F5001F2ED0B3F5AA
:1044F800800F34D0B3F5801F10D00135C7E7B3F172
:10450800807F3ED0B3F1007FF7D150F80C30886837
:1045180004F016F84A6840F4802009E050F80C309E
:10452800886804F00DF840F088504A6840F430205C
:10453800039001A92078CDE90123FFF7E1FE0028C7
:1045480028DA6FF0150005B0BDE8F08350F80C309C
:10455800886803F0F5FF4A6840EA0800E8E750F881
:104568000C30886803F0ECFF4A6840EA0900DFE78E
:1045780050F80C30886803F0E3FF4A6840F0827016
:10458800D6E750F80C30886803F0DAFF4A6840F044
:104598008870CDE7237801332370AEE7C1F89830EF
:1045A8000133C1F8A00077E74FF0FF30CBE700BF39
:1045B80000ED00E02CA30008A00A00240000F0FF92
:1045C8000000081100000206F0B587B007460E4645
:1045D80014460021102268461D4604F004FE0223FA
:1045E8002A4621468DF802306846044BCDE9047608
:1045F800019303F011F907B0F0BD00BF89850008E9
:1046080008B5024B1B689847002008BDF408002431
:10461800034B044A1860937843F002039370704781
:10462800F40800244C0000240649074821F007013B
:10463800C1F1105208B502F5002203F0B0FD0020C8
:1046480008BD00BF7F300024F8080024F0B5134DE2
:1046580089B0134E134F4FF0FF324FF0FF3305A9C7
:10466800284602F087F8B8B1002301220E49CDE9A7
:104678000270CDE90033184603F08DFFEBE723689D
:1046880013B1059A934203D105A8D4E9013198479B
:104698000C34B442F3D3DEE7044CFAE75C0100249F
:1046A800FC9C0008EAB500085C9C0008FC9C00081B
:1046B800F0B589B017461E4605909DF838008DF86C
:1046C80019108DF81800ADF81A700796DDE9105426
:1046D80023462C432A460AD0104904F005FED1F897
:1046E80080400F4909588C4204BF002213460D48E8
:1046F80005A901F0E7FF041E4FF000030BDA0A4A90
:1047080018460A490093CDE90132022203F043FF1B
:10471800204609B0F0BD1C46FAE700BFF8060024A1
:10472800080000005C010024FFB500085C9C00083C
:104738002DE9F041054600244FF001084FF0B0463E
:104748000E4F2A781319DBB208FA03F0D6F888302E
:1047580030EA03030AD152FA84F3C6F8880057F8FE
:1047680033201AB107EBC3035968904701346A78BC
:10477800E3B29A42E5D2BDE8F08100BF0409002403
:10478800044B03EB40000023013320F8022B99422D
:10479800FADC7047E40000244FF48013094A0A4900
:1047A80010B5D2F8A40088420BD0581CF9D0013BB0
:1047B800F7D183F31188BFF36F8F0424204602DFFB
:1047C800EFE710BD006402580003008007B5062219
:1047D80001210020FFF7D4FF002206201146FFF731
:1047E800C5FC012107220846FFF7CAFF002207205F
:1047F8001146FFF7BBFC082201210220FFF7C0FF8A
:10480800002208201146FFF7B1FC092201210320EC
:10481800FFF7B6FF002209201146FFF7A7FC0A227E
:1048280001210420FFF7ACFF00220A201146FFF700
:104838009DFC052117220846FFF7A2FF002217203A
:104848001146FFF793FC282206210A20FFF798FF5C
:10485800002228201146FFF789FC0223F42207488A
:10486800CDE9002383681B6823B16946984703B0E4
:104878005DF804FB6FF05700F9E700BFDC93000810
:10488800034680B1B0FA80F2C2F11F02D2B20749E2
:1048980031F912004FF0B042D2F880100B43C2F841
:1048A8008030FFF755BCFF22F1E700BFE400002489
:1048B80038B50D460446FFF76FFF032D0DD8DFE826
:1048C80005F0021116204FF0B0431A6822EA0402DC
:1048D8001A605A6822EA04025A600E4B4FF440727A
:1048E8005A6238BD4FF0B0431A682243F0E74FF0E0
:1048F800B0435A6822435A601A6822EA04021A60CE
:10490800EBE74FF0B0431A6822431A605A68144321
:104918005C60E2E70064025830B5B0B1B0FA80F3E9
:10492800C3F11F03DBB20B4850F833408C4204D16B
:1049380000EBC3056D68954205D044B940F83310C3
:1049480000EBC3004260002030BDFF23EBE76FF0AF
:104958000F00F9E70409002460B1B0FA80F3C3F14D
:104968001F03DBB2044A002142F8331002EBC302F2
:1049780051607047FF23F5E70409002438B500F0BB
:1049880003030F250C4604339B009D4045EA900520
:10499800FFF702FF05F003032A0C92FAA2F29B002C
:1049A800B2FA82F203F1B04302F01F02D3F80814FE
:1049B80094404FF4407221EA15410C43C3F808446F
:1049C800014B5A6238BD00BF0064025800F0030270
:1049D8000F23043292009340094A43EA900000F002
:1049E8000303023352F82320030C93FAA3F3B3FA18
:1049F80083F302EA104003F01F03D840704700BF5A
:104A080000040058064B1B6903F03803102B05D02F
:104A1800182B044818BF0020400870470248FBE7DD
:104A28000044025800389C1C00127A002C4B10B528
:104A380018680B88C3F30B030D2B25D8072B08D850
:104A480003F6FF70C0F30B0004280ED96FF0850041
:104A580019E00120984010F4285F33D110F4A06FBA
:104A680032D10C2BF2D11F4807E0023B032B21D88F
:104A7800DFE803F002232C26002010600B68B3F552
:104A8800805F25D2002010BDD42B0FD003F62873E9
:104A9800C3F30B031C2BD9D8012404FA03F3124CDB
:104AA800234205D140F211142342CFD04008E4E755
:104AB8008008E2E7FFF7A6FFDFE74FF4FA40DCE7FC
:104AC8000A48DAE70A48D8E70A48D6E70A48D4E79E
:104AD800C3F313330133B0FBF3F01060D2E700BF28
:104AE800D400002400B4C40400101111006CDC02CE
:104AF800000E270700389C1C00127A004FF4801320
:104B0800094A0A4910B5D2F88C0088420BD0581CC3
:104B1800F9D0013BF7D183F31188BFF36F8F0424D9
:104B2800204602DFEFE710BD006402580003008052
:104B380010B50B880C4603F62C73C3F30B03202B1C
:104B480013D8FFF7DBFF238861680020C3F30B034A
:104B580003F1B04303F511331A6822EA01021A601F
:104B68004FF44072024BDA6010BD6FF08500FBE72E
:104B78000064025813B50B880C4603F62C73C3F374
:104B88000B03202B1DD8FFF7B9FF2388616800208D
:104B9800C3F30B0303F1B04303F511331A680A4357
:104BA8001A604FF440722388C3F30B0303F1B04338
:104BB80003F511331B680193019B034BDA6002B0C4
:104BC80010BD6FF08500FAE70064025837B5974CBE
:104BD800D4F8E03043F00073C4F8E030D4F8E030A3
:104BE80003F000730193019BFFF788FF236843F4E8
:104BF80080232360236843F48033236023689D0364
:104C0800FCD5636F43F001036367884B5A6F9007C5
:104C1800FCD51A6842F480521A601A689104FCD5CF
:104C2800834B9A6942F440429A619A699204FCD58E
:104C38007E4B1A6902F03802182A16D11A685507ED
:104C480006D41A6842F001021A601A685407FCD5A3
:104C5800764B1A6922F007021A611A6912F0380FA6
:104C6800FBD19A6922F00F029A61704B1A6822F000
:104C780080721A601A6822F080621A601A6822F03C
:104C880080521A609A6A22F0030242F002029A6283
:104C98009A6A22F47C7242F010029A62DA6A22F06E
:104CA8000C0242F00802DA62DA6A22F00202DA62E0
:104CB8001A6B22F4FF7222F0010242F077021A63A3
:104CC800DA6A22F00102DA621A6B22F47E4242F4B6
:104CD80000721A63DA6A42F48032DA621A6B22F4DA
:104CE800FE0242F4E0221A63DA6A42F40032DA621F
:104CF8001A6B22F0FE4242F080721A63DA6A42F4BA
:104D08008022DA621A6842F080721A601A6890018A
:104D1800FCD59A6A454C22F47C3242F480429A626D
:104D2800DA6A22F0C002DA62DA6A42F02002DA6253
:104D38009A6B22F4FF7222F0010242F077029A6322
:104D4800DA6A22F01002DA629A6B22F47E4242F4A6
:104D580000729A63DA6A42F40022DA629A6B22F4E9
:104D6800FE0242F400329A63DA6A42F48012DA628E
:104D78009A6B22F0FE4242F080729A63DA6A42F439
:104D88000012DA621A6842F080621A602368190118
:104D9800FCD5FFF737FE05462648854201D201F0CB
:104DA8006DFAA369214A23F47063A361A36923F010
:104DB8000F0343F00803A361E36923F0700343F092
:104DC8004003E361E36923F4E06343F48063E36150
:104DD800A36923F0700343F04003A361236A23F01F
:104DE800700343F040032362236923F0070343F071
:104DF80003032361136903F03803182BFAD10D4814
:104E0800854201D301F03AFA094B9A6942F44042CB
:104E18009A619A699204FCD5074B4FF440720020BE
:104E2800DA60064B064A1A6003B030BD00440258E7
:104E380000480258001C4E0E00640258D40000249A
:104E480000389C1C10B508880C46C0F30B0003F012
:104E5800BDFB002826DB4B68FF2B22D0FFF74EFE58
:104E6800626893B2C2F38450C2F3054203F1B043BF
:104E780000FA02F203F51133196821EA02021A60F6
:104E880061688BB2CA0EC1F3054103F1B0438A4091
:104E980003F51133186802431A604FF44072024B4D
:104EA800DA60002010BD00BF0064025808B507484A
:104EB80003F0C1FF38B10648FFF7AAFB0448FEF724
:104EC800A3F9002008BD6FF01200FBE7BC950008AD
:104ED800DD4E00080A2838B50446074D04D1AB68F2
:104EE8000D2128465B689847AB68E1B202485B68C9
:104EF8009847204638BD00BFBC9500082DE9F84307
:104F0800D0F804801746D0F810900D46D8F808005D
:104F18001E4603F04FFBB7F5001F044616D1D8F81C
:104F280008402846FFF752FD84420CD1294603F079
:104F380041FB044603F041FB2046FFF70DFD00212D
:104F48002046FFF7B5FC0020BDE8F883B7F5800FD1
:104F580020D0B6F1806F19D0B6F1C06F18D0B6F175
:104F6800007F1AD102264A460F492046FFF7D4FC93
:104F7800B0B9D8F808102846FFF700FD204631469A
:104F8800FFF796FC2046FFF77BFCDCE70126EAE703
:104F98000326E8E76FF08500D6E76FF01500D3E742
:104FA8006FF00F00D0E700BF3F8700084FF4801371
:104FB800094A0A4910B5D2F8A00088420BD0581CFB
:104FC800F9D0013BF7D183F31188BFF36F8F042425
:104FD800204602DFEFE710BD00640258000300809E
:104FE80038B543680C465D68FFF7E0FF4FF4407240
:104FF80000206B6963406B61014B1A6238BD00BFCA
:105008000064025870B543680D4614465E68FFF7A1
:10501800CDFF4FF44072002073695C402C405C4027
:10502800014B74611A6270BD006402582DE9F8439F
:10503800164645680124884602F0300799468C4098
:10504800FFF7B4FF6A68C6F38013C6F3C111C6F34D
:10505800412622EA040203FA08F3202F43EA020356
:1050680004FA08F26B6002EB4200D5F808C002FBB4
:1050780001F102FB06F66FEA00032CEA000C41EA94
:105088000C01A960E96821EA000146EA0106EE6020
:105098000FD1B8F1070F18D802FA08F1286A01FAF7
:1050A80008F1C1EB011401FB09F120EA04000143F6
:1050B800296229683F090B4057434FF440721F4348
:1050C800094B2F601A62BDE8F883240A696A6443B1
:1050D8006443C4EB041004FB09F921EA000141EA26
:1050E80009016962E5E700BF0064025838B5036941
:1050F800044658600A4D284603F09DFE60B1AB682F
:1051080061681B680C3123B12846984700EAE070B3
:1051180038BD6FF05700F9E76FF01200F8E700BFED
:10512800DC9300082DE9F04F466889B04FF000087D
:105138004FF0010BF56806901835079573684345DD
:1051480005DC337D002B40F0A18000241AE00C23FD
:10515800D6F808A003FB08F70AEB07045AF807007B
:1051680003F069FE034688B95AF807206FF0120465
:105178004A49126800900392494ACDE90102012286
:1051880003F026FB204609B0BDE8F08FE3885AF803
:105198000700217943F48032046913F0010F0BFAF8
:1051A80001FCD0F808E0236814BF4CEA030323EAA3
:1051B8000C032360DEF800309847044660B1394B91
:1051C800CDE9038002930023012234491846CDE932
:1051D800003303F0FDFAD5E7069B284645F8183C4E
:1051E800316903F0BDFE337D002B4BD1D6F808A002
:1051F800A5F114012C4B0AEB070999F804200BFAC6
:1052080002F245E904325AF807008268D4698CB181
:105218000122A047041E10DA244B01221F490293E1
:1052280000231846CDE9003303F0D2FA204BCDE92C
:105238000384C7E76FF05704EEE799F804105AF8AB
:10524800070003F0A6FA05F8080C5AF8070099F8C1
:10525800041083689C6994B14FF0C0634FF0A0724A
:10526800A047041E0EDA134B01220C4902930023B7
:1052780003941846CDE9003303F0AAFAD6E76FF095
:105288005704F0E708F10108483557E732680A2360
:105298000798A2FB032301F0ADFC56E7549C0008D5
:1052A8000AB700081AB70008C38700083AB7000809
:1052B80056B700085DB700080346F0B553F8186DF7
:1052C80087B005467268D16892685C1A174BE4107B
:1052D8005C430C236343D718D058397903F059FA43
:1052E800031E0DDA01221249CDE90343114B029343
:1052F80000231846CDE9003303F06AFA07B0F0BD81
:1053080015F9082C9A42F9D04FF0FF304FF0FF31D1
:1053180005F8083C003B3A8918BF0123CDE9020192
:10532800012130460091FFF7C3F9E7E7398EE338EA
:10533800549C000880B700082DE9F047044600EBAC
:10534800C10600251C4FB44201D1002014E020689A
:10535800C30600F01F0911D4656845F02005C0F3A5
:10536800481AC0F34420102823D857F82080B8F1F1
:10537800000F0DD16FF01200BDE8F087B9F1100FE2
:1053880004D0B9F1110FEAD16568E8E73025E6E7FE
:10539800404603F050FD0028ECD04B462A460AF060
:1053A8000F01404603F0DDF9002804F10804CADAC9
:1053B800E2E76FF01500DFE74CA50008012912D0DD
:1053C800022907D089B90068094BC01A18BF012003
:1053D800000370470068064B984214BF4FF44050D2
:1053E8004FF400507047002070474FF4005070474A
:1053F800000C005870B51D460026094B6C0833F8A0
:1054080012203346FBF7E2FB2A460902334641EAFB
:1054180010610002201841F10001FBF7D7FB70BDB5
:10542800C0A600082DE9F0410269064643680C460B
:10543800106888B01D68D9688368DB6863B9314B28
:1054480001223149029300231846CDE9003303F0C5
:105458005DFA08B0BDE8F08107AA98470028EEDB9E
:105468002A4B9D423FD1079F0025DFF8A4802346A1
:10547800AAB238460021FFF7BDFFA0F540704045AD
:1054880010D901350C2DF2D10494012233681E493C
:105498000393204B029300231846CDE9003303F011
:1054A80035FAD6E7194EF36A23F00F032B43F3625C
:1054B800002CCED0184B384633F815200023194657
:1054C800FBF784FB22460902630841EA10610002E7
:1054D800C0184FF0000341F10001FBF777FBC0F360
:1054E8001300F060B5E72B6823F400432B60079B9B
:1054F800002CAED003EB5403B3FBF4F39BB2EB6088
:10550800A7E700BFBFB70008DC9C0008000C0058E4
:10551800FFFC0F00EDB70008C0A600082DE9F8430E
:1055280006460A7940680D463369012A04685F68AF
:1055380063D0931ED3F1000848EB03084FEA88288C
:105548006979FFF73BFF95F806900346B9F1020F1A
:1055580056D0B9F1040F57D0002A5FD0033A012A78
:1055680054D94FF48050B3F5805F59D0B3F5405FFC
:1055780058D0002B0CBF01230323994246D1414642
:1055880003F082F9814541D1EB791BB3012B4BD153
:10559800274B9C421ED0A3F54C439C421AD003F5DE
:1055A80080639C4216D003F580639C4212D003F5B9
:1055B80080639C420ED003F544439C420AD0A3F575
:1055C8001C439C4206D003F580639C4202D0194BD1
:1055D8009C421BD123682946304623F001032360EF
:1055E80003F019FA236843F00103236095E80300E8
:1055F80087E803000020BDE8F8834FF4C0689FE700
:105608003AB94FF08050AEE7002AAAD06FF0850073
:10561800F1E7033A012AF9D90020A4E71046A2E7E6
:105628000023AAE70223A8E7032BB1D0EEE700BFC7
:1056380000100140000C0058F0B5064645680469A2
:1056480087B06948206003F0F6FB034650B9674A03
:1056580067496FF012040093CDE90132012203F08B
:1056680055F90EE02068E96883681B6863B19847BC
:10567800044658B905AA0021286A03F0B9F8041E9F
:1056880011DA204607B0F0BD6FF05704594B0122DC
:105698005749029300231846CDE9003303F036F941
:1056A800002CEEDBE6E7059B002219791868FFF766
:1056B80043FE041EE5DB756833692C685F68236860
:1056C80023F001032360686803F0B5FB034608B9BB
:1056D800494ABDE7D5E901018368DB6803B198470A
:1056E80054E8003F43F00C0344E80032002AF7D1A5
:1056F8003946304603F08FF92B7D1BB1A36843F080
:105708000803A3606B7D1BB1636843F400436360C7
:10571800AB7D1BB1636843F480336360EB7D1BB1E1
:10572800636843F4003363602B7E002B4AD0334B0D
:105738009C422DD0A3F54C439C4229D003F58063AD
:105748009C4225D003F580639C4221D003F58063F9
:105758009C421DD003F544439C4219D0A3F51C4339
:105768009C4215D003F580639C4211D0244B9C4287
:105778000ED0336801221E496FF015040393214BA4
:10578800029300231846CDE9003303F0BFF878E709
:1057980073681A68936843F48043936023686A7E49
:1057A80023F0787343EA425323602368AA7E23F4E4
:1057B800F81343EA02432360EB7E1BB1A36843F46A
:1057C8000043A3602B7F1BB1236843F00053236081
:1057D800236843F001032360E3699A02FCD5E36977
:1057E8005B02FCD500244CE7DC93000804B80008F1
:1057F800DC9C000823B8000843B8000800100140EA
:10580800000C00585EB800082DE9F04188B0066920
:1058180045684E4F384603F00EFB034668B94C4ABC
:105828004C490090CDE90102012203F0AEFA6FF075
:105838001204204608B0BDE8F081D7F808806969ED
:10584800D8F8003073B138469847041E0DDA424B39
:105858000293002301223F491846CDE9003303F0A3
:1058680094FAE6E76FF05704F1E72B69012B0ED99C
:105878006969D8F81830083133B10022384698479A
:10588800041E04DA354BE3E76FF05704FAE707AA7A
:105898000021686802F0ACFF041E07DB079B0022AA
:1058A80019791868FFF748FD041E0BDA2C4B012202
:1058B80028490293002303941846CDE9003303F0E6
:1058C80064FAB6E7B5680127D6E9023203EBC203EA
:1058D8009D4204D33046002403F07BFAA9E72868E8
:1058E80003F0A9FA034668B92A791A4904922A6882
:1058F8001268009003921B4ACDE90102012203F0CD
:1059080044FA94E728682979EB88DA07D0F810C0B8
:1059180007FA01FED0F8088054BF43F4B01383F4AB
:10592800D013DCF8004023F48012DB074CBF4EEAAA
:10593800040424EA0E04CCF80040D8F80030984754
:10594800041EFFF676AF0835BEE700BFDC930008FB
:1059580004B80008C49C0008ABB80008C6B8000822
:10596800E8B8000806B900082DE9F04F93B0D0F860
:1059780004A080460E4604699146DAF80070069342
:1059880012B9002B00F05583B388990400F1D48034
:105998004FF0FF324FF0FF3304F1100000F080FFAA
:1059A8006660D8F810300AADDFF88CC20793D8F8D3
:1059B80004B0BCE80F000FC59CE80F0085E80F0095
:1059C800079ADBF800501268B388964240F0C0800E
:1059D8001A0508D5B9F1000F00F0B7804FF4C121BE
:1059E800284603F0B3F8B3884946069A2046C3F31D
:1059F8004513082B0CBF0123022303F0CCF83D68A4
:105A0800FB6805F4006503F4C0231D439AF81830B9
:105A1800EBB1B388DB071AD4002D40F091814946D9
:105A2800304603F090F9B0F10009C0F29980069968
:105A3800304603F088F90028C0F2F9828145B8BFE2
:105A480081467B681B0C1B0443EA09037B603B68A7
:105A580043F001033B60FB685E0200F17E81012098
:105A680003F0D9F9D8F810603068002840F07E813A
:105A78002368DAF800609B88D90700F1B5819AF8A5
:105A88001830002B00F090813368F26803F4006945
:105A980002F4C02349EA0309B9F5C12F40F0738124
:105AA80073699A0700F17B81DAF80060736913F46F
:105AB800787300F0298204930122604B60490393B4
:105AC800604B029300231846CDE9003303F05DF9DB
:105AD80073695F0603D5B36943F04003B3616FF0A0
:105AE8000409D8F80470D8F810603D686B69DB07C2
:105AF80000F16D82EB68580200F16C826B699905C0
:105B080003D5AB6943F40073AB61397E2B68EA684F
:105B1800002900F07A82AB6943F01003AB61AB69EE
:105B280043F04003AB61AB6943F00803AB616B68BA
:105B38001B0C1B046B6071E2A369002B7FF428AF78
:105B480063689E427FF424AF2BE74FF4C02147E7F8
:105B5800C3F34512082A12D0102A10D06FF0850915
:105B6800236813B19B889B0405D40023636004F168
:105B7800100000F061FE484613B0BDE8F08F1B042A
:105B880005D5EB6823F4601343F40023EB602E483B
:105B9800DBF810208368012ADBF81410DB682ED9A3
:105BA800083163B9294B029300230122244918467E
:105BB8006FF00409CDE9003303F0E7F8D0E709AA4C
:105BC80098470028EEDB099A0123316822FA03F08E
:105BD80088421CD90133092BF8D1130A6FF0150933
:105BE800520805931A4B02930023CDE90312184675
:105BF80001221349CDE9003303F0C7F8B0E70BB928
:105C0800144BD0E709AA98470028DCDAF8E72A6895
:105C180012A922F0010201EB83032A60AA6853F853
:105C2800243C22F0E0421343AB60B388980713D4B6
:105C3800EB6823F0007312E0009D0008BCB900086F
:105C4800C49C0008B1B90008DC9300082AB9000810
:105C580082B9000856B90008EB6843F00073EB609E
:105C6800B38813F0040FEB6814BF43F0807323F07C
:105C78008073EB60B18811F4006104D0B9F1000FB2
:105C880052D04FF4C121284602F060FFB38813F0C8
:105C9800100FEB6814BF43F4000323F40003EB6018
:105CA800AB6823F48003AB60B268B388002A3ED0A7
:105CB800D90706D4EB68DA0003D42B6843F4805381
:105CC8002B60EB6823F0105343F08063EB60B388DC
:105CD80013F0010FEB6814BF23F4800343F480032F
:105CE800EB60B388C3F34513082BAB6823F01F039D
